:100000000C9489000C94B8000C94B8000C94B800BF
:100010000C94B8000C94B8000C94B8000C94B80080
:100020000C94B8000C94B8000C94B8000C94B80070
:100030000C94B8000C94B8000C94B8000C94B80060
:100040000C94B8000C94B8000C940A050C94B800F9
:100050000C94B4070C94EA070C94B8000C94B80004
:100060000C94B8000C94B8000C94D9030C94B8000C
:100070000C94B8000C94B8000C94B8000C94B80020
:100080000C94B8000C94B8000C94B8000D0610063F
:100090000306070627062706140618061E0622066C
:1000A000000000010200090A000000000403080724
:1000B0000000000000000000000000000000000040
:1000C0000102040810204080010204081020408032
:1000D0000102040810204080010204081020408022
:1000E00002020202020202020404040404040404E0
:1000F00003030303030303030101010101010101E0
:1001000000002200250028002B003301EF021E080A
:10011000370111241FBECFEFD0E4DEBFCDBF11E009
:10012000A0E0B1E0E8E8F9E100E00BBF02C0079011
:100130000D92A034B107D9F722E0A0E4B1E001C0EC
:100140001D92A33BB207E1F711E0C0E1D1E000E06E
:1001500006C022970109FE010BBF0E94AE0CCA30F7
:10016000D10780E00807A9F70E94570A0C94B20C47
:100170000C94000086E491E00E94570126E040E0E4
:1001800052EC61E070E086E192E00E94520764E682
:1001900070E080E090E00E94770563E071E086E126
:1001A00092E00E94AC0864E670E080E090E00C947D
:1001B000770560E471E086E491E00E949901609126
:1001C000400170914101882777FD8095982F0E940A
:1001D0006B0B20E030E040E05DE30E941F0CAB01C0
:1001E000BC0122E030E086E192E00E94420A6FE02A
:1001F00071E086E192E00E949F0860914201709157
:100200004301882777FD8095982F0E946B0B20E093
:1002100030E040E05DE30E941F0CAB01BC0122E036
:1002200030E086E192E00E94420A6FE071E086E1F0
:1002300092E00E949F0860914401709145018827D7
:1002400077FD8095982F0E946B0B20E030E040E016
:100250005DE30E941F0CAB01BC0122E030E086E1AF
:1002600092E00C94440A86E491E00C943B0186E40D
:1002700091E00C943C0108950895CF93DF93D82F1B
:10028000C62F63E570E08DE491E00E9473026D2F4C
:100290008DE491E00E9420026C2F8DE491E00E9499
:1002A00020028DE491E0DF91CF910C94EC028DE47B
:1002B00091E00E945F0263E0809101010E943D0194
:1002C00068E0809102010C943D01FF920F931F930F
:1002D000CF93DF93F82EEB018A0163E570E08DE4A4
:1002E00091E00E9473026F2D8DE491E00E94200244
:1002F0008DE491E00E94EC02AE0163E570E08DE4D4
:1003000091E00E94E902E8018DE491E00E94C801B9
:10031000892B31F08DE491E00E94D0018993F4CFD4
:100320008DE491E0DF91CF911F910F91FF900C949C
:10033000EC02CF93DF93EB0147E451E066E070E01D
:10034000809100010E9465018091480190E0982F02
:10035000882720914701822B049799838883809175
:100360004A0190E0982F882720914901822B03961B
:100370009B838A8380914C0190E0982F882720915D
:100380004B01822B04969D838C83DF91CF9108953E
:1003900080917D0190E020917E01821B910908955A
:1003A00020917E0180917D01281750F4E22FF0E02A
:1003B000E158FE4F808190E02F5F20937E010895E9
:1003C0008FEF9FEF0895E0917E0180917D01E81706
:1003D00030F4F0E0E158FE4F808190E008958FEF17
:1003E0009FEF08950895CF92DF92EF92FF920F93BF
:1003F0001F93CF93DF937C01CB018A012091590198
:10040000222389F0EB016B01C40ED51ECC15DD054E
:1004100069F06991D701ED91FC910190F081E02D97
:10042000C7010995F3CF642F0E94B003C801DF9183
:10043000CF911F910F91FF90EF90DF90CF90089593
:10044000CF93DF931F92CDB7DEB769832091590117
:100450002223D1F020915A01203240F021E030E0F7
:10046000FC013383228380E090E015C080915B0122
:10047000E82FF0E0E45AFE4F998190838F5F8093DC
:100480005B0180935A0105C061E0CE0101960E9494
:10049000B00381E090E00F90DF91CF910895FC01CF
:1004A0001382128248EE53E060E070E0448355838B
:1004B0006683778385E191E091838083089510922C
:1004C0007E0110927D0110925B0110925A010C94F2
:1004D000F30281E08093590160937C0110925B01EB
:1004E00010925A0108950C9469020F93062F21E08F
:1004F00040915A016CE571E080917C010E945903A2
:1005000010925B0110925A01109259010F910895B7
:100510008F929F92AF92BF92CF92DF92EF92FF9213
:100520000F931F93CF93DF93EC01F62ED42E480147
:100530005901EE2019F10E9469021E2D143008F0B5
:1005400013E01150B8F0E881F98128E0129FB00162
:100550001124A501940104C0569547953795279518
:100560006A95D2F7CA01B9010190F081E02DCE0160
:100570000995E7CF60E0CE010E9475024D2D413212
:1005800008F040E22C2D6FE771E08F2D0E941103DF
:1005900010927E0180937D01DF91CF911F910F9189
:1005A000FF90EF90DF90CF90BF90AF909F908F9093
:1005B0000895CF92EF920F931F93C22EE12C00E08B
:1005C00010E098010E9488021F910F91EF90CF9048
:1005D000089521E00C94D90261E00C9475028DE439
:1005E00091E00C944F0210920C0281E080930A0279
:1005F0001092090261E081E10E94280661E080E139
:100600000E942806E9EBF0E080818E7F8083808164
:100610008D7F808388E48093B80085E48093BC005C
:100620000895413208F043C090910C029111FCCF23
:1006300091E090930C0220930A022FEF20939F01E8
:100640001092E401240F2093E30190930B02909108
:100650000B02880F892B80930B0280910902813055
:1006600061F41092090280910B028093BB0080918B
:10067000BC0083FDF8CF85EC01C085EE8093BC0003
:1006800080910C028130E1F38091E401841710F431
:100690004091E40125EE31E0FB01D9018A2F821B54
:1006A000841718F48D918193F9CF842F089580E0F9
:1006B00008950F93413208F04AC090910C029111B5
:1006C000FCCF92E090930C0200930A029FEF90936C
:1006D0009F011092E4014093E301FB0165EE71E09C
:1006E000DB019A2F961B941718F491919D93F9CFE3
:1006F00010920B0290910B02880F892B80930B02B2
:1007000080910902813061F41092090280910B02FC
:100710008093BB008091BC0083FDF8CF85EC01C0C5
:1007200085EE8093BC00222321F080910C02823060
:10073000E1F380919F018F3F61F080919F018032B2
:1007400051F080919F01803341F483E007C081E044
:1007500005C080E003C082E001C084E00F910895ED
:10076000613298F420910C02243089F46093C10125
:10077000FC0183EC91E0DC012A2F281B261718F4DA
:1007800021912D93F9CF80E0089581E0089582E0D2
:10079000089585ED8093BC008091BC0084FDFCCF62
:1007A00010920C02089585EC8093BC0010920C020C
:1007B00008951F920F920FB60F9211240BB60F924D
:1007C0002F933F934F935F936F937F938F939F9359
:1007D000AF93BF93EF93FF938091B900887F8036EA
:1007E00009F49EC078F5883209F45DC090F4803138
:1007F00009F456C038F4882309F4F5C0883009F4A8
:100800004FC0F5C0883109F44EC0803209F45FC092
:10081000EEC0803409F46AC058F4803309F457C03C
:10082000883309F0E4C080939F010E94D303DFC0A6
:10083000803509F44FC0883509F45DC0883409F06B
:10084000D6C0D3C0883909F4C4C0A8F4883709F4E5
:1008500067C038F4883609F463C0803709F460C093
:10086000C6C0883809F4B5C0803909F45FC0803843
:1008700009F0BDC05BC0803B09F483C038F4803A06
:1008800009F466C0883A09F47CC0B1C0803C09F420
:10089000A4C0883C09F4A1C0883B09F487C0A7C064
:1008A00080910B0210C09091E4018091E3019817B0
:1008B00070F5E091E40181E08E0F8093E401F0E0B7
:1008C000EB51FE4F80818093BB0085EC83C0809309
:1008D0009F018BC0E091E40181E08E0F8093E401E1
:1008E0008091BB00F0E0EB51FE4F80839091E401DA
:1008F0008091E3016BC0E091E40181E08E0F809371
:10090000E4018091BB00F0E0EB51FE4F80838091C9
:100910000A0281116AC081E08093090284EA5EC004
:1009200083E080930C021092A001CFCF8091A001B0
:10093000803208F04EC0E091A00181E08E0F8093DC
:10094000A0018091BB00F0E0EF55FE4F8083BDCF4A
:100950000E94D3038091A001803230F4E091A00185
:10096000F0E0EF55FE4F10826091A00170E0E09141
:100970000502F091060281EA91E009951092A0012A
:1009800036C084E080930C021092C2011092C10123
:10099000E0910702F091080209958091C10181114F
:1009A00005C081E08093C1011092C301E091C201B2
:1009B00081E08E0F8093C201F0E0ED53FE4F808105
:1009C0008093BB009091C2018091C101981708F4F7
:1009D0007CCF85E88093BC000AC085EC8093BC0086
:1009E00010920C0204C010929F010E94C903FF9153
:1009F000EF91BF91AF919F918F917F916F915F9197
:100A00004F913F912F910F900BBE0F900FBE0F9003
:100A10001F9018951F920F920FB60F9211242F93CB
:100A20003F938F939F93AF93BF9380910E029091CA
:100A30000F02A0911002B091110230910D0223E03B
:100A4000230F2D3720F40196A11DB11D05C026E806
:100A5000230F0296A11DB11D20930D0280930E025B
:100A600090930F02A0931002B09311028091120292
:100A700090911302A0911402B09115020196A11D4C
:100A8000B11D8093120290931302A0931402B093AD
:100A90001502BF91AF919F918F913F912F910F9030
:100AA0000FBE0F901F9018953FB7F89480911202D7
:100AB00090911302A0911402B091150226B5A89B43
:100AC00005C02F3F19F00196A11DB11D3FBF66273C
:100AD000782F892F9A2F620F711D811D911D42E081
:100AE000660F771F881F991F4A95D1F708958F9237
:100AF0009F92AF92BF92CF92DF92EF92FF926B01E3
:100B00007C010E9454054B015C01C114D104E10435
:100B1000F104F1F00E94660A0E94540568197909EF
:100B20008A099B09683E73408105910570F321E0B5
:100B3000C21AD108E108F10888EE880E83E0981EF9
:100B4000A11CB11CC114D104E104F10429F7DDCFCB
:100B5000FF90EF90DF90CF90BF90AF909F908F90DD
:100B60000895789484B5826084BD84B5816084BD25
:100B700085B5826085BD85B5816085BDEEE6F0E016
:100B8000808181608083E1E8F0E010828081826072
:100B90008083808181608083E0E8F0E080818160F3
:100BA0008083E1EBF0E0808184608083E0EBF0E023
:100BB000808181608083E1E9F0E0808182608083D0
:100BC000808181608083E0E9F0E0808181608083C2
:100BD000EAE7F0E0808184608083808182608083A6
:100BE0008081816080838081806880831092C100D1
:100BF000089590E0FC013197EA30F10540F5EA5B99
:100C0000FF4F0C94A80C809180008F7703C08091D7
:100C100080008F7D80938000089584B58F7702C017
:100C200084B58F7D84BD08958091B0008F7703C017
:100C30008091B0008F7D8093B000089580919000E6
:100C40008F7703C0809190008F7D809390000895EE
:100C50000F931F93CF93DF931F92CDB7DEB7282F4B
:100C600030E0F901E056FF4F8491F901E054FF4F65
:100C70001491F901E052FF4F04910023C9F0882339
:100C800021F069830E94F9056981E02FF0E0EE0F01
:100C9000FF1FE050FF4FA591B4919FB7F8948C913E
:100CA000611103C01095812301C0812B8C939FBFDC
:100CB0000F90DF91CF911F910F910895FC01818DCD
:100CC000228D90E0805C9F4F821B91098F73992742
:100CD0000895FC01918D828D981731F0828DE80F77
:100CE000F11D858D90E008958FEF9FEF0895FC0131
:100CF000918D828D981761F0828DDF01A80FB11D53
:100D00005D968C91928D9F5F9F73928F90E0089576
:100D10008FEF9FEF089584E198E0892B41F080E008
:100D200090E0892B21F00E94140881110DC080E011
:100D300090E0892B71F080E090E0892B51F00E94C7
:100D40000000811104C008950E940000F0CF0C94AF
:100D500000000895FC01848DDF01A80FB11DA35A86
:100D6000BF4F2C91848D90E001968F739927848FCB
:100D7000A689B7892C93A089B1898C9180648C93C2
:100D8000938D848D981306C00288F389E02D8081AD
:100D90008F7D80830895CF93DF93EC01888D882326
:100DA000C9F0EA89FB89808185FD05C0A889B989D8
:100DB0008C9186FD0FC00FB607FCF5CF808185FFB3
:100DC000F2CFA889B9898C9185FFEDCFCE010E9421
:100DD000AA06E7CFDF91CF910895CF92DF92FF92DD
:100DE0000F931F93CF93DF931F92CDB7DEB76C01A4
:100DF00081E0D60158968C9358975B969C915B97AF
:100E00005C968C915C97981307C05096ED91FC917D
:100E10005197808185FD2EC0F601038D10E00F5F94
:100E20001F4F0F731127F02EF601848DF81211C099
:100E30000FB607FCF9CFD6015096ED91FC91519772
:100E4000808185FFF1CFC60169830E94AA0669816E
:100E5000EBCF838DE80FF11DE35AFF4F6083D6017E
:100E60005B960C935B975296ED91FC915397808122
:100E700080620CC0D6015696ED91FC915797608325
:100E80005096ED91FC91519780818064808381E040
:100E900090E00F90DF91CF911F910F91FF90DF9025
:100EA000CF900895BF92CF92DF92EF92FF92CF93AF
:100EB000DF93EC016A017B01B22EE889F98982E0B7
:100EC0008083411581EE580761057105A1F060E04E
:100ED00079E08DE390E0A70196010E94860C2150F5
:100EE000310941095109569547953795279521159F
:100EF00080E1380798F0E889F989108260E874E8A1
:100F00008EE190E0A70196010E94860C21503109E4
:100F1000410951095695479537952795EC85FD85EB
:100F20003083EE85FF852083188EEC89FD89B082A1
:100F3000EA89FB89808180618083EA89FB898081DD
:100F400088608083EA89FB89808180688083EA8960
:100F5000FB8980818F7D8083DF91CF91FF90EF901F
:100F6000DF90CF90BF9008951F920F920FB60F920F
:100F700011240BB60F922F938F939F93EF93FF93B0
:100F8000E0912602F09127028081E0912C02F091FD
:100F90002D0282FD12C0908180912F028F5F8F738E
:100FA00020913002821751F0E0912F02F0E0EA5ECA
:100FB000FD4F958F80932F0201C08081FF91EF91AB
:100FC0009F918F912F910F900BBE0F900FBE0F909E
:100FD0001F9018951F920F920FB60F9211240BB607
:100FE0000F922F933F934F935F936F937F938F93C2
:100FF0009F93AF93BF93EF93FF9386E192E00E949C
:10100000AA06FF91EF91BF91AF919F918F917F9130
:101010006F915F914F913F912F910F900BBE0F9069
:101020000FBE0F901F90189586E192E00E945E0619
:1010300021E0892B09F420E0822F089510921902F3
:101040001092180288EE93E0A0E0B0E080931A02BC
:1010500090931B02A0931C02B0931D0285E291E0C5
:10106000909317028093160285EC90E090932302F0
:101070008093220284EC90E09093250280932402D6
:1010800080EC90E0909327028093260281EC90E020
:10109000909329028093280282EC90E090932B0297
:1010A00080932A0286EC90E090932D0280932C028C
:1010B00010922F02109230021092310210923202DE
:1010C0000895CF92DF92EF92FF920F931F93CF93E9
:1010D000DF937C016A01EB0100E010E00C151D05B7
:1010E00071F06991D701ED91FC910190F081E02DB3
:1010F000C7010995892B19F00F5F1F4FEFCFC8016A
:10110000DF91CF911F910F91FF90EF90DF90CF90E3
:1011100008956115710581F0DB010D900020E9F75C
:10112000AD0141505109461B570BDC01ED91FC917B
:101130000280F381E02D099480E090E008950C9402
:101140008908DC01ED91FC910190F081E02D09947A
:1011500061E371E00C9489080F931F93CF93DF93A1
:10116000EC010E9489088C01CE010E94A808800F22
:10117000911FDF91CF911F910F9108958F929F92B0
:10118000AF92BF92DF92EF92FF920F931F93CF9394
:10119000DF93CDB7DEB7A1970FB6F894DEBF0FBED1
:1011A000CDBF7C01F42FD52ECB0119A2223008F43B
:1011B0002AE08E010F5D1F4F822E912CA12CB12CA5
:1011C0006F2F7D2DA50194010E94860CF22FD32E46
:1011D000CA01015011096A3014F4E0E301C0E7E3E9
:1011E000E60FD801EC93232B242B252B49F7B801CC
:1011F000C7010E948908A1960FB6F894DEBF0FBE02
:10120000CDBFDF91CF911F910F91FF90EF90DF90B5
:10121000BF90AF909F908F900895CF92DF92EF9202
:10122000FF920F931F93CF93DF93EC016A017B0131
:101230002115310579F4E881F9810190F081E02DE3
:10124000642FDF91CF911F910F91FF90EF90DF906E
:10125000CF9009942A303105E9F477FF1AC06DE286
:101260000E94A1088C0144275527BA014C195D0939
:101270006E097F092AE0CE010E94BE08800F911FEF
:10128000DF91CF911F910F91FF90EF90DF90CF9062
:1012900008952AE0B701A601CE01DF91CF911F91F9
:1012A0000F91FF90EF90DF90CF900C94BE084F927B
:1012B0005F926F927F928F929F92AF92BF92CF92E6
:1012C000DF92EF92FF920F931F93CF93DF93EC0186
:1012D0006A017B01B22E9A01AB01C701B6010E94DF
:1012E000820C882319F064E371E027C026013701DE
:1012F000E89477F82FEF3FEF4FE75FE7C301B201C4
:101300000E94820C81110DC02FEF3FEF4FE75FE786
:10131000C301B2010E94CC0A18161CF468E371E004
:101320000CC02FEF3FEF4FE75FE4C701B6010E940B
:101330001B0C1816ACF46CE371E0CE01DF91CF9179
:101340001F910F91FF90EF90DF90CF90BF90AF90E3
:101350009F908F907F906F905F904F900C94890832
:101360002FEF3FEF4FE75FECC701B6010E94CC0AB9
:1013700087FDE1CF20E030E0A901C701B6010E945E
:10138000CC0A87FF0AC06DE2CE010E94A1088C0141
:10139000F7FAF094F7F8F09402C000E010E0A12C06
:1013A00060E070E080E09FE3AB1441F020E030E0CB
:1013B00040E251E40E94D00AA394F6CF9B01AC0115
:1013C000C701B6010E94680A6B017C010E943D0BB7
:1013D0002B013C010E94690B9B01AC01C701B601C6
:1013E0000E94670A6B017C012AE0B301A201CE01D1
:1013F0000E94BE08080F191FBB2039F06DE071E094
:10140000CE010E948908080F191F7B2C772041F11B
:1014100020E030E040E251E4C701B6010E941F0C19
:101420006B017C010E94380B4B01AA2497FCA0940D
:10143000BA2C2AE030E0B501A401CE010E940D09CA
:10144000080F191FC501B4010E946B0B9B01AC0171
:10145000C701B6010E94670A6B017C017A94D6CF5E
:10146000C801DF91CF911F910F91FF90EF90DF9016
:10147000CF90BF90AF909F908F907F906F905F9034
:101480004F9008950C9457090F931F93CF93DF93B8
:10149000EC010E9457098C01CE010E94A808800F20
:1014A000911FDF91CF911F910F91089508950E9490
:1014B000B1050E94560A0E94BA00CBE8D6E00E940D
:1014C000D9002097E1F30E948B06F9CF0895505878
:1014D000BB27AA270ED075C166D130F06BD120F0A2
:1014E00031F49F3F11F41EF45BC10EF4E095E7FB6D
:1014F00051C1E92F77D180F3BA17620773078407C8
:10150000950718F071F49EF58FC10EF4E0950B2E3F
:10151000BA2FA02D0B01B90190010C01CA01A00145
:101520001124FF27591B99F0593F50F4503E68F1A0
:101530001A16F040A22F232F342F4427585FF3CFE1
:10154000469537952795A795F0405395C9F77EF4B2
:101550001F16BA0B620B730B840BBAF09150A1F0FB
:10156000FF0FBB1F661F771F881FC2F70EC0BA0F81
:10157000621F731F841F48F4879577956795B79509
:10158000F7959E3F08F0B3CF9395880F08F0992701
:10159000EE0F979587950895D9D008F481E00895C6
:1015A0000CD00FC107D140F0FED030F021F45F3FE6
:1015B00019F0F0C0511139C1F3C014D198F3992337
:1015C000C9F35523B1F3951B550BBB27AA27621707
:1015D0007307840738F09F5F5F4F220F331F441F4C
:1015E000AA1FA9F333D00E2E3AF0E0E830D0915084
:1015F0005040E695001CCAF729D0FE2F27D0660F71
:10160000771F881FBB1F261737074807AB07B0E8AF
:1016100009F0BB0B802DBF01FF2793585F4F2AF0C5
:101620009E3F510568F0B6C000C15F3FECF3983EA5
:10163000DCF3869577956795B795F7959F5FC9F722
:10164000880F911D9695879597F90895E1E0660FAB
:10165000771F881FBB1F621773078407BA0720F024
:10166000621B730B840BBA0BEE1F88F7E09508958D
:1016700004D06894B111D9C00895BCD088F09F57A8
:1016800090F0B92F9927B751A0F0D1F0660F771FCE
:10169000881F991F1AF0BA95C9F712C0B13081F0AE
:1016A000C3D0B1E00895C0C0672F782F8827B85FF6
:1016B00039F0B93FCCF3869577956795B395D9F70F
:1016C0003EF490958095709561957F4F8F4F9F4F19
:1016D0000895E89409C097FB3EF490958095709525
:1016E00061957F4F8F4F9F4F9923A9F0F92F96E96E
:1016F000BB279395F695879577956795B795F111E3
:10170000F8CFFAF4BB0F11F460FF1BC06F5F7F4F7F
:101710008F4F9F4F16C0882311F096E911C0772391
:1017200021F09EE8872F762F05C0662371F096E89A
:10173000862F70E060E02AF09A95660F771F881F69
:10174000DAF7880F9695879597F90895990F00080D
:10175000550FAA0BE0E8FEEF16161706E807F90783
:10176000C0F012161306E407F50798F0621B730B1E
:10177000840B950B39F40A2661F0232B242B252B9F
:1017800021F408950A2609F4A140A6958FEF811D42
:10179000811D089597F99F6780E870E060E00895E3
:1017A0009FEF80EC089500240A9416161706180679
:1017B0000906089500240A94121613061406050655
:1017C0000895092E0394000C11F4882352F0BB0FE6
:1017D00040F4BF2B11F460FF04C06F5F7F4F8F4F49
:1017E0009F4F089557FD9058440F551F59F05F3F84
:1017F00071F04795880F97FB991F61F09F3F79F033
:1018000087950895121613061406551FF2CF4695B4
:10181000F1DF08C0161617061806991FF1CF869536
:101820007105610508940895E894BB27662777271A
:10183000CB0197F908958ADF08F48FEF08950BD054
:10184000C0CFB1DF28F0B6DF18F0952309F0A2CFA2
:10185000A7CF1124EACFC6DFA0F3959FD1F3950F50
:1018600050E0551F629FF001729FBB27F00DB11D24
:10187000639FAA27F00DB11DAA1F649F6627B00DB4
:10188000A11D661F829F2227B00DA11D621F739F9D
:10189000B00DA11D621F839FA00D611D221F749FAB
:1018A0003327A00D611D231F849F600D211D822FF2
:1018B000762F6A2F11249F5750408AF0E1F0882339
:1018C0004AF0EE0FFF1FBB1F661F771F881F915046
:1018D0005040A9F79E3F510570F05CCFA6CF5F3F07
:1018E000ECF3983EDCF3869577956795B795F79579
:1018F000E7959F5FC1F7FE2B880F911D9695879501
:1019000097F9089523DF880B990B0895A1E21A2E09
:10191000AA1BBB1BFD010DC0AA1FBB1FEE1FFF1F93
:10192000A217B307E407F50720F0A21BB30BE40BE3
:10193000F50B661F771F881F991F1A9469F760952A
:101940007095809590959B01AC01BD01CF010895E4
:10195000EE0FFF1F0590F491E02D09940790F6918A
:10196000E02D099411E0C0E1D1E000E006C022972B
:101970000109FE010BBF0E94AE0CC231D10780E00D
:081980000807A9F7F894FFCF56
:1019880032312D5374617274696E672E2E2E0009E0
:1019980000000000002002F301C801D001E301F2B9
:1019A8000100000000ED0661085E0677066906CBB7
:1019B800060D0A006E616E00696E66006F7666003D
:020000021000EC
:10FC0000112404B714BE01FD04C003FD25D1802FCB
:10FC1000E8D185E08093810082E08093C00088E194
:10FC20008093C10086E08093C20080E18093C4008D
:10FC30008EE0FCD0579A86E020E33CEF91E03093D1
:10FC400085002093840096BBB09BFECF4F9AA89569
:10FC50008150A9F7EE24FF24BB24B394A1E1CA2E5E
:10FC6000F3E0DF2ED5D0813459F4D2D0082FE4D080
:10FC7000023839F1013809F47FC083E0C1D083C074
:10FC8000823411F484E103C0853419F485E0DCD0BA
:10FC90007AC0853591F4BCD0082F10E0B9D0E82E99
:10FCA000FF24FE2CEE24E02AF12A8F2D881F8827BE
:10FCB000881F8BBFEE0CFF1C65C0863521F484E0E5
:10FCC000C3D080E0DBCF843609F041C0A1D0A0D002
:10FCD000082F9ED080E0E81680EEF80618F4F701B1
:10FCE000D7BEE895C0E0D1E093D089930C17E1F737
:10FCF000F0E0EF16F0EEFF0618F0F701D7BEE8953A
:10FD00009BD007B600FCFDCFA701A0E0B1E02C918D
:10FD100030E011968C91119790E0982F8827822BD4
:10FD2000932B1296FA010C01B7BEE89511244E5F91
:10FD30005F4FF2E0A030BF0751F785E0F70187BFC2
:10FD4000E89507B600FCFDCFC7BEE8951CC0843718
:10FD500061F45ED05DD0082F5BD06ED0F701879143
:10FD60007F014ED00150D1F70EC0853739F464D0F1
:10FD70008EE146D087E944D085E080CF813511F40B
:10FD800088E054D059D080E13BD06CCF8EBD0DB40B
:10FD900007FEFDCF8EB50895479885E0F7DF80E038
:10FDA000F5DF479A817008951F93182F662321F07D
:10FDB00086E060E0F9DF479AEFDF8823E9F74798AC
:10FDC000812FE4DF1F910895EF92FF920F931F930D
:10FDD0007B018C0183E060E0E7DFC801AA27BB2735
:10FDE000D5DFBB27A12F902F8F2DD0DF8E2DCEDF1B
:10FDF00080E0CCDF479A1F910F91FF90EF9008951C
:10FE0000982F8091C00085FFFCCF9093C600089585
:10FE10004F9A8091C00087FFFCCF8091C00084FD85
:10FE200001C0A8958091C6004F9A0895E0E6F0E0E1
:10FE300098E1908380830895EBDF803219F088E0A9
:10FE4000F5DFFFCF84E1DCCF1F93182FE1DF1150E6
:10FE5000E9F7F2DF1F9108959F92AF92BF92CF9280
:10FE6000DF92EF92FF920F931F93CF93DF9380E087
:10FE7000DDDF3F9A84B1806B84B9479A2C9A8CB5A8
:10FE800080658CBD47988FE981DF80E07FDF479AEE
:10FE900081508E3F08F099C081E061E085DF80E00D
:10FEA00075DF479A60E070E080E090E08DDF863497
:10FEB00009F08BC061E070E080E090E085DF8C3479
:10FEC00009F083C062E070E080E090E07DDF88357B
:10FED00009F07BC066E070E080E090E075DF8A3377
:10FEE00009F073C069E070E080E090E06DDF8A3374
:10FEF00009F06BC067E070E080E090E065DF082FFC
:10FF000068E070E080E090E05FDF10E0F02EEE242B
:10FF100090E0E82AF92AE0FC58C04F9AC0E0D0E00F
:10FF2000CC24DD249924939443E0A42E35E0B32E11
:10FF30002DC02A96BE0180E090E046DF082F10E039
:10FF40002196BE0180E090E02B973EDF90E0982F55
:10FF50008827802B912BFE010C0197BEE895112478
:10FF60002296CC2319F0CE15DF0581F4F601A7BE49
:10FF7000E89507B600FCFDCFF601B7BEE89507B6D9
:10FF800000FCFDCF80E091E0C80ED91ECE15DF0544
:10FF900080F24F9881E187BFE895EAE0F0E0EE0E4D
:10FFA000FF1EF1E0EF16F0E8FF0610F482E501C055
:10FFB00088ED61E0F9DE80E0E9DE80E0E7DE80E008
:10FFC000E5DE479A88E032DFFFCFDF91CF911F91C6
:10FFD0000F91FF90EF90DF90CF90BF90AF909F90E8
:0EFFE0000895282E80E022DFEE27FF270994E7
:02FFFE000005FC
:040000031000FC00ED
:00000001FF
